{"abi":[{"type":"constructor","inputs":[{"name":"name_","type":"string","internalType":"string"},{"name":"symbol_","type":"string","internalType":"string"},{"name":"totalUnits_","type":"uint256","internalType":"uint256"},{"name":"paymentToken_","type":"address","internalType":"address"},{"name":"maxOwnershipBps_","type":"uint256","internalType":"uint256"},{"name":"metadata_","type":"tuple","internalType":"struct RealEstateToken.PropertyMetadata","components":[{"name":"streetAddress","type":"string","internalType":"string"},{"name":"legalDescription","type":"string","internalType":"string"},{"name":"appraisalValue","type":"uint256","internalType":"uint256"},{"name":"appraisalDate","type":"uint256","internalType":"uint256"},{"name":"totalUnits","type":"uint256","internalType":"uint256"},{"name":"documentURI","type":"string","internalType":"string"}]}],"stateMutability":"nonpayable"},{"type":"function","name":"allowance","inputs":[{"name":"owner","type":"address","internalType":"address"},{"name":"spender","type":"address","internalType":"address"}],"outputs":[{"name":"","type":"uint256","internalType":"uint256"}],"stateMutability":"view"},{"type":"function","name":"approve","inputs":[{"name":"spender","type":"address","internalType":"address"},{"name":"amount","type":"uint256","internalType":"uint256"}],"outputs":[{"name":"","type":"bool","internalType":"bool"}],"stateMutability":"nonpayable"},{"type":"function","name":"balanceOf","inputs":[{"name":"account","type":"address","internalType":"address"}],"outputs":[{"name":"","type":"uint256","internalType":"uint256"}],"stateMutability":"view"},{"type":"function","name":"claimRentalIncome","inputs":[],"outputs":[],"stateMutability":"nonpayable"},{"type":"function","name":"claimableEarnings","inputs":[{"name":"holder","type":"address","internalType":"address"}],"outputs":[{"name":"","type":"uint256","internalType":"uint256"}],"stateMutability":"view"},{"type":"function","name":"decimals","inputs":[],"outputs":[{"name":"","type":"uint8","internalType":"uint8"}],"stateMutability":"view"},{"type":"function","name":"decreaseAllowance","inputs":[{"name":"spender","type":"address","internalType":"address"},{"name":"subtractedValue","type":"uint256","internalType":"uint256"}],"outputs":[{"name":"","type":"bool","internalType":"bool"}],"stateMutability":"nonpayable"},{"type":"function","name":"depositRentalIncome","inputs":[{"name":"amount","type":"uint256","internalType":"uint256"}],"outputs":[],"stateMutability":"nonpayable"},{"type":"function","name":"distributions","inputs":[{"name":"","type":"uint256","internalType":"uint256"}],"outputs":[{"name":"totalAmount","type":"uint256","internalType":"uint256"},{"name":"totalShares","type":"uint256","internalType":"uint256"},{"name":"timestamp","type":"uint256","internalType":"uint256"},{"name":"claimed","type":"bool","internalType":"bool"}],"stateMutability":"view"},{"type":"function","name":"emergencyWithdraw","inputs":[{"name":"token","type":"address","internalType":"address"},{"name":"amount","type":"uint256","internalType":"uint256"}],"outputs":[],"stateMutability":"nonpayable"},{"type":"function","name":"getOwnershipPercentage","inputs":[{"name":"holder","type":"address","internalType":"address"}],"outputs":[{"name":"bps","type":"uint256","internalType":"uint256"}],"stateMutability":"view"},{"type":"function","name":"getPropertyInfo","inputs":[],"outputs":[{"name":"streetAddress","type":"string","internalType":"string"},{"name":"appraisalValue","type":"uint256","internalType":"uint256"},{"name":"appraisalDate","type":"uint256","internalType":"uint256"},{"name":"totalUnits","type":"uint256","internalType":"uint256"},{"name":"documentURI","type":"string","internalType":"string"},{"name":"paymentTokenAddress","type":"address","internalType":"address"},{"name":"distributionCount","type":"uint256","internalType":"uint256"}],"stateMutability":"view"},{"type":"function","name":"increaseAllowance","inputs":[{"name":"spender","type":"address","internalType":"address"},{"name":"addedValue","type":"uint256","internalType":"uint256"}],"outputs":[{"name":"","type":"bool","internalType":"bool"}],"stateMutability":"nonpayable"},{"type":"function","name":"lastClaimedIndex","inputs":[{"name":"","type":"address","internalType":"address"}],"outputs":[{"name":"","type":"uint256","internalType":"uint256"}],"stateMutability":"view"},{"type":"function","name":"maxOwnershipBps","inputs":[],"outputs":[{"name":"","type":"uint256","internalType":"uint256"}],"stateMutability":"view"},{"type":"function","name":"name","inputs":[],"outputs":[{"name":"","type":"string","internalType":"string"}],"stateMutability":"view"},{"type":"function","name":"owner","inputs":[],"outputs":[{"name":"","type":"address","internalType":"address"}],"stateMutability":"view"},{"type":"function","name":"pause","inputs":[],"outputs":[],"stateMutability":"nonpayable"},{"type":"function","name":"paused","inputs":[],"outputs":[{"name":"","type":"bool","internalType":"bool"}],"stateMutability":"view"},{"type":"function","name":"paymentToken","inputs":[],"outputs":[{"name":"","type":"address","internalType":"contract IERC20"}],"stateMutability":"view"},{"type":"function","name":"property","inputs":[],"outputs":[{"name":"streetAddress","type":"string","internalType":"string"},{"name":"legalDescription","type":"string","internalType":"string"},{"name":"appraisalValue","type":"uint256","internalType":"uint256"},{"name":"appraisalDate","type":"uint256","internalType":"uint256"},{"name":"totalUnits","type":"uint256","internalType":"uint256"},{"name":"documentURI","type":"string","internalType":"string"}],"stateMutability":"view"},{"type":"function","name":"renounceOwnership","inputs":[],"outputs":[],"stateMutability":"nonpayable"},{"type":"function","name":"setMaxOwnershipBps","inputs":[{"name":"newMaxBps","type":"uint256","internalType":"uint256"}],"outputs":[],"stateMutability":"nonpayable"},{"type":"function","name":"symbol","inputs":[],"outputs":[{"name":"","type":"string","internalType":"string"}],"stateMutability":"view"},{"type":"function","name":"totalSupply","inputs":[],"outputs":[{"name":"","type":"uint256","internalType":"uint256"}],"stateMutability":"view"},{"type":"function","name":"transfer","inputs":[{"name":"to","type":"address","internalType":"address"},{"name":"amount","type":"uint256","internalType":"uint256"}],"outputs":[{"name":"","type":"bool","internalType":"bool"}],"stateMutability":"nonpayable"},{"type":"function","name":"transferFrom","inputs":[{"name":"from","type":"address","internalType":"address"},{"name":"to","type":"address","internalType":"address"},{"name":"amount","type":"uint256","internalType":"uint256"}],"outputs":[{"name":"","type":"bool","internalType":"bool"}],"stateMutability":"nonpayable"},{"type":"function","name":"transferOwnership","inputs":[{"name":"newOwner","type":"address","internalType":"address"}],"outputs":[],"stateMutability":"nonpayable"},{"type":"function","name":"unclaimedEarnings","inputs":[{"name":"","type":"address","internalType":"address"}],"outputs":[{"name":"","type":"uint256","internalType":"uint256"}],"stateMutability":"view"},{"type":"function","name":"unpause","inputs":[],"outputs":[],"stateMutability":"nonpayable"},{"type":"function","name":"updatePropertyMetadata","inputs":[{"name":"streetAddress","type":"string","internalType":"string"},{"name":"appraisalValue","type":"uint256","internalType":"uint256"},{"name":"appraisalDate","type":"uint256","internalType":"uint256"},{"name":"documentURI","type":"string","internalType":"string"}],"outputs":[],"stateMutability":"nonpayable"},{"type":"event","name":"Approval","inputs":[{"name":"owner","type":"address","indexed":true,"internalType":"address"},{"name":"spender","type":"address","indexed":true,"internalType":"address"},{"name":"value","type":"uint256","indexed":false,"internalType":"uint256"}],"anonymous":false},{"type":"event","name":"EmergencyWithdraw","inputs":[{"name":"token","type":"address","indexed":true,"internalType":"address"},{"name":"amount","type":"uint256","indexed":false,"internalType":"uint256"}],"anonymous":false},{"type":"event","name":"MaxOwnershipUpdated","inputs":[{"name":"newMaxBps","type":"uint256","indexed":false,"internalType":"uint256"}],"anonymous":false},{"type":"event","name":"OwnershipTransferred","inputs":[{"name":"previousOwner","type":"address","indexed":true,"internalType":"address"},{"name":"newOwner","type":"address","indexed":true,"internalType":"address"}],"anonymous":false},{"type":"event","name":"Paused","inputs":[{"name":"account","type":"address","indexed":false,"internalType":"address"}],"anonymous":false},{"type":"event","name":"PropertyUpdated","inputs":[{"name":"streetAddress","type":"string","indexed":false,"internalType":"string"},{"name":"appraisalValue","type":"uint256","indexed":false,"internalType":"uint256"}],"anonymous":false},{"type":"event","name":"RentalIncomeClaimed","inputs":[{"name":"holder","type":"address","indexed":true,"internalType":"address"},{"name":"amount","type":"uint256","indexed":false,"internalType":"uint256"},{"name":"distributionIndex","type":"uint256","indexed":false,"internalType":"uint256"}],"anonymous":false},{"type":"event","name":"RentalIncomeDeposited","inputs":[{"name":"amount","type":"uint256","indexed":false,"internalType":"uint256"},{"name":"distributionIndex","type":"uint256","indexed":false,"internalType":"uint256"}],"anonymous":false},{"type":"event","name":"Transfer","inputs":[{"name":"from","type":"address","indexed":true,"internalType":"address"},{"name":"to","type":"address","indexed":true,"internalType":"address"},{"name":"value","type":"uint256","indexed":false,"internalType":"uint256"}],"anonymous":false},{"type":"event","name":"Unpaused","inputs":[{"name":"account","type":"address","indexed":false,"internalType":"address"}],"anonymous":false},{"type":"error","name":"MaxOwnershipExceeded","inputs":[{"name":"wallet","type":"address","internalType":"address"},{"name":"currentBps","type":"uint256","internalType":"uint256"},{"name":"maxBps","type":"uint256","internalType":"uint256"}]},{"type":"error","name":"NothingToClaim","inputs":[]},{"type":"error","name":"TransferRestricted","inputs":[]},{"type":"error","name":"ZeroAmount","inputs":[]}],"bytecode":{"object":"0x60806040523480156200001157600080fd5b506040516200499138038062004991833981810160405281019062000037919062000a00565b858581600390816200004a919062000d3a565b5080600490816200005c919062000d3a565b5050506200007f620000736200027460201b60201c565b6200027c60201b60201c565b60016006819055506000600760006101000a81548160ff02191690831515021790555060008411620000e8576040517f08c379a0000000000000000000000000000000000000000000000000000000008152600401620000df9062000e82565b60405180910390fd5b600073ffffffffffffffffffffffffffffffffffffffff168373ffffffffffffffffffffffffffffffffffffffff16036200015a576040517f08c379a0000000000000000000000000000000000000000000000000000000008152600401620001519062000ef4565b60405180910390fd5b612710821115620001a2576040517f08c379a0000000000000000000000000000000000000000000000000000000008152600401620001999062000f66565b60405180910390fd5b82600e60006101000a81548173ffffffffffffffffffffffffffffffffffffffff021916908373ffffffffffffffffffffffffffffffffffffffff16021790555081601281905550806008600082015181600001908162000204919062000d3a565b5060208201518160010190816200021c919062000d3a565b5060408201518160020155606082015181600301556080820151816004015560a082015181600501908162000252919062000d3a565b509050506200026833856200034260201b60201c565b50505050505062001204565b600033905090565b6000600560009054906101000a900473ffffffffffffffffffffffffffffffffffffffff16905081600560006101000a81548173ffffffffffffffffffffffffffffffffffffffff021916908373ffffffffffffffffffffffffffffffffffffffff1602179055508173ffffffffffffffffffffffffffffffffffffffff168173ffffffffffffffffffffffffffffffffffffffff167f8be0079c531659141344cd1fd0a4f28419497f9722a3daafe3b4186f6b6457e060405160405180910390a35050565b600073ffffffffffffffffffffffffffffffffffffffff168273ffffffffffffffffffffffffffffffffffffffff1603620003b4576040517f08c379a0000000000000000000000000000000000000000000000000000000008152600401620003ab9062000fd8565b60405180910390fd5b620003c860008383620004af60201b60201c565b8060026000828254620003dc919062001029565b92505081905550806000808473ffffffffffffffffffffffffffffffffffffffff1673ffffffffffffffffffffffffffffffffffffffff168152602001908152602001600020600082825401925050819055508173ffffffffffffffffffffffffffffffffffffffff16600073ffffffffffffffffffffffffffffffffffffffff167fddf252ad1be2c89b69c2b068fc378daa952ba7f163c4a11628f55a4df523b3ef836040516200048f919062001075565b60405180910390a3620004ab60008383620005ed60201b60201c565b5050565b620004bf620005f260201b60201c565b620004d28383836200064760201b60201c565b600073ffffffffffffffffffffffffffffffffffffffff168373ffffffffffffffffffffffffffffffffffffffff16141580156200053d5750600073ffffffffffffffffffffffffffffffffffffffff168273ffffffffffffffffffffffffffffffffffffffff1614155b15620005e85760008162000557846200064c60201b60201c565b62000563919062001029565b90506000620005776200069460201b60201c565b6127108362000587919062001092565b6200059391906200110c565b9050601254811115620005e55783816012546040517fc7216acc000000000000000000000000000000000000000000000000000000008152600401620005dc9392919062001155565b60405180910390fd5b50505b505050565b505050565b620006026200069e60201b60201c565b1562000645576040517f08c379a00000000000000000000000000000000000000000000000000000000081526004016200063c90620011e2565b60405180910390fd5b565b505050565b60008060008373ffffffffffffffffffffffffffffffffffffffff1673ffffffffffffffffffffffffffffffffffffffff168152602001908152602001600020549050919050565b6000600254905090565b6000600760009054906101000a900460ff16905090565b6000604051905090565b600080fd5b600080fd5b600080fd5b600080fd5b6000601f19601f8301169050919050565b7f4e487b7100000000000000000000000000000000000000000000000000000000600052604160045260246000fd5b6200071e82620006d3565b810181811067ffffffffffffffff8211171562000740576200073f620006e4565b5b80604052505050565b600062000755620006b5565b905062000763828262000713565b919050565b600067ffffffffffffffff821115620007865762000785620006e4565b5b6200079182620006d3565b9050602081019050919050565b60005b83811015620007be578082015181840152602081019050620007a1565b60008484015250505050565b6000620007e1620007db8462000768565b62000749565b9050828152602081018484840111156200080057620007ff620006ce565b5b6200080d8482856200079e565b509392505050565b600082601f8301126200082d576200082c620006c9565b5b81516200083f848260208601620007ca565b91505092915050565b6000819050919050565b6200085d8162000848565b81146200086957600080fd5b50565b6000815190506200087d8162000852565b92915050565b600073ffffffffffffffffffffffffffffffffffffffff82169050919050565b6000620008b08262000883565b9050919050565b620008c281620008a3565b8114620008ce57600080fd5b50565b600081519050620008e281620008b7565b92915050565b600080fd5b600080fd5b600060c082840312156200090b576200090a620008e8565b5b6200091760c062000749565b9050600082015167ffffffffffffffff8111156200093a5762000939620008ed565b5b620009488482850162000815565b600083015250602082015167ffffffffffffffff8111156200096f576200096e620008ed565b5b6200097d8482850162000815565b602083015250604062000993848285016200086c565b6040830152506060620009a9848285016200086c565b6060830152506080620009bf848285016200086c565b60808301525060a082015167ffffffffffffffff811115620009e657620009e5620008ed565b5b620009f48482850162000815565b60a08301525092915050565b60008060008060008060c0878903121562000a205762000a1f620006bf565b5b600087015167ffffffffffffffff81111562000a415762000a40620006c4565b5b62000a4f89828a0162000815565b965050602087015167ffffffffffffffff81111562000a735762000a72620006c4565b5b62000a8189828a0162000815565b955050604062000a9489828a016200086c565b945050606062000aa789828a01620008d1565b935050608062000aba89828a016200086c565b92505060a087015167ffffffffffffffff81111562000ade5762000add620006c4565b5b62000aec89828a01620008f2565b9150509295509295509295565b600081519050919050565b7f4e487b7100000000000000000000000000000000000000000000000000000000600052602260045260246000fd5b6000600282049050600182168062000b4c57607f821691505b60208210810362000b625762000b6162000b04565b5b50919050565b60008190508160005260206000209050919050565b60006020601f8301049050919050565b600082821b905092915050565b60006008830262000bcc7fffffffffffffffffffffffffffffffffffffffffffffffffffffffffffffffff8262000b8d565b62000bd8868362000b8d565b95508019841693508086168417925050509392505050565b6000819050919050565b600062000c1b62000c1562000c0f8462000848565b62000bf0565b62000848565b9050919050565b6000819050919050565b62000c378362000bfa565b62000c4f62000c468262000c22565b84845462000b9a565b825550505050565b600090565b62000c6662000c57565b62000c7381848462000c2c565b505050565b5b8181101562000c9b5762000c8f60008262000c5c565b60018101905062000c79565b5050565b601f82111562000cea5762000cb48162000b68565b62000cbf8462000b7d565b8101602085101562000ccf578190505b62000ce762000cde8562000b7d565b83018262000c78565b50505b505050565b600082821c905092915050565b600062000d0f6000198460080262000cef565b1980831691505092915050565b600062000d2a838362000cfc565b9150826002028217905092915050565b62000d458262000af9565b67ffffffffffffffff81111562000d615762000d60620006e4565b5b62000d6d825462000b33565b62000d7a82828562000c9f565b600060209050601f83116001811462000db2576000841562000d9d578287015190505b62000da9858262000d1c565b86555062000e19565b601f19841662000dc28662000b68565b60005b8281101562000dec5784890151825560018201915060208501945060208101905062000dc5565b8683101562000e0c578489015162000e08601f89168262000cfc565b8355505b6001600288020188555050505b505050505050565b600082825260208201905092915050565b7f546f74616c20756e697473206d757374206265203e2030000000000000000000600082015250565b600062000e6a60178362000e21565b915062000e778262000e32565b602082019050919050565b6000602082019050818103600083015262000e9d8162000e5b565b9050919050565b7f496e76616c6964207061796d656e7420746f6b656e0000000000000000000000600082015250565b600062000edc60158362000e21565b915062000ee98262000ea4565b602082019050919050565b6000602082019050818103600083015262000f0f8162000ecd565b9050919050565b7f4d6178206f776e657273686970203e2031303025000000000000000000000000600082015250565b600062000f4e60148362000e21565b915062000f5b8262000f16565b602082019050919050565b6000602082019050818103600083015262000f818162000f3f565b9050919050565b7f45524332303a206d696e7420746f20746865207a65726f206164647265737300600082015250565b600062000fc0601f8362000e21565b915062000fcd8262000f88565b602082019050919050565b6000602082019050818103600083015262000ff38162000fb1565b9050919050565b7f4e487b7100000000000000000000000000000000000000000000000000000000600052601160045260246000fd5b6000620010368262000848565b9150620010438362000848565b92508282019050808211156200105e576200105d62000ffa565b5b92915050565b6200106f8162000848565b82525050565b60006020820190506200108c600083018462001064565b92915050565b60006200109f8262000848565b9150620010ac8362000848565b9250828202620010bc8162000848565b91508282048414831517620010d657620010d562000ffa565b5b5092915050565b7f4e487b7100000000000000000000000000000000000000000000000000000000600052601260045260246000fd5b6000620011198262000848565b9150620011268362000848565b925082620011395762001138620010dd565b5b828204905092915050565b6200114f81620008a3565b82525050565b60006060820190506200116c600083018662001144565b6200117b602083018562001064565b6200118a604083018462001064565b949350505050565b7f5061757361626c653a2070617573656400000000000000000000000000000000600082015250565b6000620011ca60108362000e21565b9150620011d78262001192565b602082019050919050565b60006020820190508181036000830152620011fd81620011bb565b9050919050565b61377d80620012146000396000f3fe608060405234801561001057600080fd5b50600436106101e55760003560e01c806370a082311161010f578063a2931fe8116100a2578063d9e56e2d11610071578063d9e56e2d1461057e578063dd62ed3e1461059c578063ebf4094c146105cc578063f2fde38b146105fc576101e5565b8063a2931fe8146104be578063a457c2d7146104ee578063a9059cbb1461051e578063d9c3813f1461054e576101e5565b80638a243460116100de5780638a2434601461044a5780638da5cb5b1461046657806395ccea671461048457806395d89b41146104a0576101e5565b806370a08231146103ea578063715018a61461041a57806383cfbb09146104245780638456cb5914610440576101e5565b8063313ce5671161018757806347315ec41161015657806347315ec41461035c578063559369371461038c5780635c975abb146103a85780635de5f3be146103c6576101e5565b8063313ce567146102d157806339509351146102ef5780633f4ba83a1461031f5780634487d3df14610329576101e5565b806318160ddd116101c357806318160ddd1461025b578063201538511461027957806323b872dd146102835780633013ce29146102b3576101e5565b806306fdde03146101ea578063095ea7b314610208578063176fd3f014610238575b600080fd5b6101f2610618565b6040516101ff9190612276565b60405180910390f35b610222600480360381019061021d9190612336565b6106aa565b60405161022f9190612391565b60405180910390f35b6102406106cd565b604051610252969594939291906123bb565b60405180910390f35b61026361088f565b6040516102709190612431565b60405180910390f35b610281610899565b005b61029d6004803603810190610298919061244c565b6109ea565b6040516102aa9190612391565b60405180910390f35b6102bb610a19565b6040516102c891906124fe565b60405180910390f35b6102d9610a3f565b6040516102e69190612535565b60405180910390f35b61030960048036038101906103049190612336565b610a48565b6040516103169190612391565b60405180910390f35b610327610a7f565b005b610343600480360381019061033e9190612550565b610a91565b604051610353949392919061257d565b60405180910390f35b610376600480360381019061037191906125c2565b610ade565b6040516103839190612431565b60405180910390f35b6103a660048036038101906103a19190612550565b610af6565b005b6103b0610ca4565b6040516103bd9190612391565b60405180910390f35b6103ce610cbb565b6040516103e197969594939291906125fe565b60405180910390f35b61040460048036038101906103ff91906125c2565b610e3b565b6040516104119190612431565b60405180910390f35b610422610e83565b005b61043e600480360381019061043991906126e0565b610e97565b005b610448610f20565b005b610464600480360381019061045f9190612550565b610f32565b005b61046e610fc0565b60405161047b9190612787565b60405180910390f35b61049e60048036038101906104999190612336565b610fea565b005b6104a86111a9565b6040516104b59190612276565b60405180910390f35b6104d860048036038101906104d391906125c2565b61123b565b6040516104e59190612431565b60405180910390f35b61050860048036038101906105039190612336565b611284565b6040516105159190612391565b60405180910390f35b61053860048036038101906105339190612336565b6112fb565b6040516105459190612391565b60405180910390f35b610568600480360381019061056391906125c2565b61131e565b6040516105759190612431565b60405180910390f35b610586611336565b6040516105939190612431565b60405180910390f35b6105b660048036038101906105b191906127a2565b61133c565b6040516105c39190612431565b60405180910390f35b6105e660048036038101906105e191906125c2565b6113c3565b6040516105f39190612431565b60405180910390f35b610616600480360381019061061191906125c2565b6113d5565b005b60606003805461062790612811565b80601f016020809104026020016040519081016040528092919081815260200182805461065390612811565b80156106a05780601f10610675576101008083540402835291602001916106a0565b820191906000526020600020905b81548152906001019060200180831161068357829003601f168201915b5050505050905090565b6000806106b5611458565b90506106c2818585611460565b600191505092915050565b60088060000180546106de90612811565b80601f016020809104026020016040519081016040528092919081815260200182805461070a90612811565b80156107575780601f1061072c57610100808354040283529160200191610757565b820191906000526020600020905b81548152906001019060200180831161073a57829003601f168201915b50505050509080600101805461076c90612811565b80601f016020809104026020016040519081016040528092919081815260200182805461079890612811565b80156107e55780601f106107ba576101008083540402835291602001916107e5565b820191906000526020600020905b8154815290600101906020018083116107c857829003601f168201915b50505050509080600201549080600301549080600401549080600501805461080c90612811565b80601f016020809104026020016040519081016040528092919081815260200182805461083890612811565b80156108855780601f1061085a57610100808354040283529160200191610885565b820191906000526020600020905b81548152906001019060200180831161086857829003601f168201915b5050505050905086565b6000600254905090565b6108a1611629565b60006108ac33611678565b9050600081036108e8576040517f969bf72800000000000000000000000000000000000000000000000000000000815260040160405180910390fd5b600f80549050601160003373ffffffffffffffffffffffffffffffffffffffff1673ffffffffffffffffffffffffffffffffffffffff1681526020019081526020016000208190555061097e3382600e60009054906101000a900473ffffffffffffffffffffffffffffffffffffffff1673ffffffffffffffffffffffffffffffffffffffff1661177c9092919063ffffffff16565b3373ffffffffffffffffffffffffffffffffffffffff167f235331035bfb03383c90336cb4fa264f97312efd5447d1b5f39e352299369121826001600f805490506109c99190612871565b6040516109d79291906128a5565b60405180910390a2506109e8611802565b565b6000806109f5611458565b9050610a0285828561180c565b610a0d858585611898565b60019150509392505050565b600e60009054906101000a900473ffffffffffffffffffffffffffffffffffffffff1681565b60006012905090565b600080610a53611458565b9050610a74818585610a65858961133c565b610a6f91906128ce565b611460565b600191505092915050565b610a87611b0e565b610a8f611b8c565b565b600f8181548110610aa157600080fd5b90600052602060002090600402016000915090508060000154908060010154908060020154908060030160009054906101000a900460ff16905084565b60106020528060005260406000206000915090505481565b610afe611b0e565b610b06611629565b60008103610b40576040517f1f2a200500000000000000000000000000000000000000000000000000000000815260040160405180910390fd5b610b8f333083600e60009054906101000a900473ffffffffffffffffffffffffffffffffffffffff1673ffffffffffffffffffffffffffffffffffffffff16611bef909392919063ffffffff16565b6000610b9961088f565b9050600081670de0b6b3a764000084610bb29190612902565b610bbc9190612973565b9050600f604051806080016040528085815260200184815260200142815260200160001515815250908060018154018082558091505060019003906000526020600020906004020160009091909190915060008201518160000155602082015181600101556040820151816002015560608201518160030160006101000a81548160ff02191690831515021790555050507f82a9456025158d5e460289330966aa5616f75fb4d1f9a85b5b4ee3aba7060397836001600f80549050610c819190612871565b604051610c8f9291906128a5565b60405180910390a15050610ca1611802565b50565b6000600760009054906101000a900460ff16905090565b60606000806000606060008060086000016008600201546008600301546008600401546008600501600e60009054906101000a900473ffffffffffffffffffffffffffffffffffffffff16600f80549050868054610d1890612811565b80601f0160208091040260200160405190810160405280929190818152602001828054610d4490612811565b8015610d915780601f10610d6657610100808354040283529160200191610d91565b820191906000526020600020905b815481529060010190602001808311610d7457829003601f168201915b50505050509650828054610da490612811565b80601f0160208091040260200160405190810160405280929190818152602001828054610dd090612811565b8015610e1d5780601f10610df257610100808354040283529160200191610e1d565b820191906000526020600020905b815481529060010190602001808311610e0057829003601f168201915b50505050509250965096509650965096509650965090919293949596565b60008060008373ffffffffffffffffffffffffffffffffffffffff1673ffffffffffffffffffffffffffffffffffffffff168152602001908152602001600020549050919050565b610e8b611b0e565b610e956000611c78565b565b610e9f611b0e565b858560086000019182610eb3929190612b80565b508360086002018190555082600860030181905550818160086005019182610edc929190612b80565b507fdc0d1a545b7923b69edb6d85d57ba8431d43559646628478bc3d0b817d2c55e4868686604051610f1093929190612c8c565b60405180910390a1505050505050565b610f28611b0e565b610f30611d3e565b565b610f3a611b0e565b612710811115610f7f576040517f08c379a0000000000000000000000000000000000000000000000000000000008152600401610f7690612d0a565b60405180910390fd5b806012819055507fd8479580383e3b8c8dcb1f65838af53e7b4ebd2c1c54295ca6b1d872ab46d18781604051610fb59190612431565b60405180910390a150565b6000600560009054906101000a900473ffffffffffffffffffffffffffffffffffffffff16905090565b610ff2611b0e565b600e60009054906101000a900473ffffffffffffffffffffffffffffffffffffffff1673ffffffffffffffffffffffffffffffffffffffff168273ffffffffffffffffffffffffffffffffffffffff160361112c576000600e60009054906101000a900473ffffffffffffffffffffffffffffffffffffffff1673ffffffffffffffffffffffffffffffffffffffff166370a08231306040518263ffffffff1660e01b81526004016110a49190612787565b602060405180830381865afa1580156110c1573d6000803e3d6000fd5b505050506040513d601f19601f820116820180604052508101906110e59190612d3f565b90508082111561112a576040517f08c379a000000000000000000000000000000000000000000000000000000000815260040161112190612db8565b60405180910390fd5b505b61115733828473ffffffffffffffffffffffffffffffffffffffff1661177c9092919063ffffffff16565b8173ffffffffffffffffffffffffffffffffffffffff167f5fafa99d0643513820be26656b45130b01e1c03062e1266bf36f88cbd3bd96958260405161119d9190612431565b60405180910390a25050565b6060600480546111b890612811565b80601f01602080910402602001604051908101604052809291908181526020018280546111e490612811565b80156112315780601f1061120657610100808354040283529160200191611231565b820191906000526020600020905b81548152906001019060200180831161121457829003601f168201915b5050505050905090565b60008061124661088f565b03611254576000905061127f565b61125c61088f565b61271061126884610e3b565b6112729190612902565b61127c9190612973565b90505b919050565b60008061128f611458565b9050600061129d828661133c565b9050838110156112e2576040517f08c379a00000000000000000000000000000000000000000000000000000000081526004016112d990612e4a565b60405180910390fd5b6112ef8286868403611460565b60019250505092915050565b600080611306611458565b9050611313818585611898565b600191505092915050565b60116020528060005260406000206000915090505481565b60125481565b6000600160008473ffffffffffffffffffffffffffffffffffffffff1673ffffffffffffffffffffffffffffffffffffffff16815260200190815260200160002060008373ffffffffffffffffffffffffffffffffffffffff1673ffffffffffffffffffffffffffffffffffffffff16815260200190815260200160002054905092915050565b60006113ce82611678565b9050919050565b6113dd611b0e565b600073ffffffffffffffffffffffffffffffffffffffff168173ffffffffffffffffffffffffffffffffffffffff160361144c576040517f08c379a000000000000000000000000000000000000000000000000000000000815260040161144390612edc565b60405180910390fd5b61145581611c78565b50565b600033905090565b600073ffffffffffffffffffffffffffffffffffffffff168373ffffffffffffffffffffffffffffffffffffffff16036114cf576040517f08c379a00000000000000000000000000000000000000000000000000000000081526004016114c690612f6e565b60405180910390fd5b600073ffffffffffffffffffffffffffffffffffffffff168273ffffffffffffffffffffffffffffffffffffffff160361153e576040517f08c379a000000000000000000000000000000000000000000000000000000000815260040161153590613000565b60405180910390fd5b80600160008573ffffffffffffffffffffffffffffffffffffffff1673ffffffffffffffffffffffffffffffffffffffff16815260200190815260200160002060008473ffffffffffffffffffffffffffffffffffffffff1673ffffffffffffffffffffffffffffffffffffffff168152602001908152602001600020819055508173ffffffffffffffffffffffffffffffffffffffff168373ffffffffffffffffffffffffffffffffffffffff167f8c5be1e5ebec7d5bd14f71427d1e84f3dd0314c0f7b2291e5b200ac8c7c3b9258360405161161c9190612431565b60405180910390a3505050565b60026006540361166e576040517f08c379a00000000000000000000000000000000000000000000000000000000081526004016116659061306c565b60405180910390fd5b6002600681905550565b6000806000601160008573ffffffffffffffffffffffffffffffffffffffff1673ffffffffffffffffffffffffffffffffffffffff16815260200190815260200160002054905060008190505b600f805490508110156117715760006116dd86610e3b565b9050600081111561175d576000600f83815481106116fe576116fd61308c565b5b90600052602060002090600402016001015482600f85815481106117255761172461308c565b5b9060005260206000209060040201600001546117419190612902565b61174b9190612973565b9050808561175991906128ce565b9450505b508080611769906130bb565b9150506116c5565b508192505050919050565b6117fd8363a9059cbb60e01b848460405160240161179b929190613103565b604051602081830303815290604052907bffffffffffffffffffffffffffffffffffffffffffffffffffffffff19166020820180517bffffffffffffffffffffffffffffffffffffffffffffffffffffffff8381831617835250505050611da1565b505050565b6001600681905550565b6000611818848461133c565b90507fffffffffffffffffffffffffffffffffffffffffffffffffffffffffffffffff81146118925781811015611884576040517f08c379a000000000000000000000000000000000000000000000000000000000815260040161187b90613178565b60405180910390fd5b6118918484848403611460565b5b50505050565b600073ffffffffffffffffffffffffffffffffffffffff168373ffffffffffffffffffffffffffffffffffffffff1603611907576040517f08c379a00000000000000000000000000000000000000000000000000000000081526004016118fe9061320a565b60405180910390fd5b600073ffffffffffffffffffffffffffffffffffffffff168273ffffffffffffffffffffffffffffffffffffffff1603611976576040517f08c379a000000000000000000000000000000000000000000000000000000000815260040161196d9061329c565b60405180910390fd5b611981838383611e69565b60008060008573ffffffffffffffffffffffffffffffffffffffff1673ffffffffffffffffffffffffffffffffffffffff16815260200190815260200160002054905081811015611a07576040517f08c379a00000000000000000000000000000000000000000000000000000000081526004016119fe9061332e565b60405180910390fd5b8181036000808673ffffffffffffffffffffffffffffffffffffffff1673ffffffffffffffffffffffffffffffffffffffff16815260200190815260200160002081905550816000808573ffffffffffffffffffffffffffffffffffffffff1673ffffffffffffffffffffffffffffffffffffffff168152602001908152602001600020600082825401925050819055508273ffffffffffffffffffffffffffffffffffffffff168473ffffffffffffffffffffffffffffffffffffffff167fddf252ad1be2c89b69c2b068fc378daa952ba7f163c4a11628f55a4df523b3ef84604051611af59190612431565b60405180910390a3611b08848484611f7c565b50505050565b611b16611458565b73ffffffffffffffffffffffffffffffffffffffff16611b34610fc0565b73ffffffffffffffffffffffffffffffffffffffff1614611b8a576040517f08c379a0000000000000000000000000000000000000000000000000000000008152600401611b819061339a565b60405180910390fd5b565b611b94611f81565b6000600760006101000a81548160ff0219169083151502179055507f5db9ee0a495bf2e6ff9c91a7834c1ba4fdd244a5e8aa4e537bd38aeae4b073aa611bd8611458565b604051611be59190612787565b60405180910390a1565b611c72846323b872dd60e01b858585604051602401611c10939291906133ba565b604051602081830303815290604052907bffffffffffffffffffffffffffffffffffffffffffffffffffffffff19166020820180517bffffffffffffffffffffffffffffffffffffffffffffffffffffffff8381831617835250505050611da1565b50505050565b6000600560009054906101000a900473ffffffffffffffffffffffffffffffffffffffff16905081600560006101000a81548173ffffffffffffffffffffffffffffffffffffffff021916908373ffffffffffffffffffffffffffffffffffffffff1602179055508173ffffffffffffffffffffffffffffffffffffffff168173ffffffffffffffffffffffffffffffffffffffff167f8be0079c531659141344cd1fd0a4f28419497f9722a3daafe3b4186f6b6457e060405160405180910390a35050565b611d46611fca565b6001600760006101000a81548160ff0219169083151502179055507f62e78cea01bee320cd4e420270b5ea74000d11b0c9f74754ebdbfc544b05a258611d8a611458565b604051611d979190612787565b60405180910390a1565b6000611e03826040518060400160405280602081526020017f5361666545524332303a206c6f772d6c6576656c2063616c6c206661696c65648152508573ffffffffffffffffffffffffffffffffffffffff166120149092919063ffffffff16565b9050600081511480611e25575080806020019051810190611e24919061341d565b5b611e64576040517f08c379a0000000000000000000000000000000000000000000000000000000008152600401611e5b906134bc565b60405180910390fd5b505050565b611e71611fca565b611e7c83838361202c565b600073ffffffffffffffffffffffffffffffffffffffff168373ffffffffffffffffffffffffffffffffffffffff1614158015611ee65750600073ffffffffffffffffffffffffffffffffffffffff168273ffffffffffffffffffffffffffffffffffffffff1614155b15611f7757600081611ef784610e3b565b611f0191906128ce565b90506000611f0d61088f565b61271083611f1b9190612902565b611f259190612973565b9050601254811115611f745783816012546040517fc7216acc000000000000000000000000000000000000000000000000000000008152600401611f6b939291906134dc565b60405180910390fd5b50505b505050565b505050565b611f89610ca4565b611fc8576040517f08c379a0000000000000000000000000000000000000000000000000000000008152600401611fbf9061355f565b60405180910390fd5b565b611fd2610ca4565b15612012576040517f08c379a0000000000000000000000000000000000000000000000000000000008152600401612009906135cb565b60405180910390fd5b565b60606120238484600085612031565b90509392505050565b505050565b606082471015612076576040517f08c379a000000000000000000000000000000000000000000000000000000000815260040161206d9061365d565b60405180910390fd5b6000808673ffffffffffffffffffffffffffffffffffffffff16858760405161209f91906136c4565b60006040518083038185875af1925050503d80600081146120dc576040519150601f19603f3d011682016040523d82523d6000602084013e6120e1565b606091505b50915091506120f2878383876120fe565b92505050949350505050565b606083156121605760008351036121585761211885612173565b612157576040517f08c379a000000000000000000000000000000000000000000000000000000000815260040161214e90613727565b60405180910390fd5b5b82905061216b565b61216a8383612196565b5b949350505050565b6000808273ffffffffffffffffffffffffffffffffffffffff163b119050919050565b6000825111156121a95781518083602001fd5b806040517f08c379a00000000000000000000000000000000000000000000000000000000081526004016121dd9190612276565b60405180910390fd5b600081519050919050565b600082825260208201905092915050565b60005b83811015612220578082015181840152602081019050612205565b60008484015250505050565b6000601f19601f8301169050919050565b6000612248826121e6565b61225281856121f1565b9350612262818560208601612202565b61226b8161222c565b840191505092915050565b60006020820190508181036000830152612290818461223d565b905092915050565b600080fd5b600080fd5b600073ffffffffffffffffffffffffffffffffffffffff82169050919050565b60006122cd826122a2565b9050919050565b6122dd816122c2565b81146122e857600080fd5b50565b6000813590506122fa816122d4565b92915050565b6000819050919050565b61231381612300565b811461231e57600080fd5b50565b6000813590506123308161230a565b92915050565b6000806040838503121561234d5761234c612298565b5b600061235b858286016122eb565b925050602061236c85828601612321565b9150509250929050565b60008115159050919050565b61238b81612376565b82525050565b60006020820190506123a66000830184612382565b92915050565b6123b581612300565b82525050565b600060c08201905081810360008301526123d5818961223d565b905081810360208301526123e9818861223d565b90506123f860408301876123ac565b61240560608301866123ac565b61241260808301856123ac565b81810360a0830152612424818461223d565b9050979650505050505050565b600060208201905061244660008301846123ac565b92915050565b60008060006060848603121561246557612464612298565b5b6000612473868287016122eb565b9350506020612484868287016122eb565b925050604061249586828701612321565b9150509250925092565b6000819050919050565b60006124c46124bf6124ba846122a2565b61249f565b6122a2565b9050919050565b60006124d6826124a9565b9050919050565b60006124e8826124cb565b9050919050565b6124f8816124dd565b82525050565b600060208201905061251360008301846124ef565b92915050565b600060ff82169050919050565b61252f81612519565b82525050565b600060208201905061254a6000830184612526565b92915050565b60006020828403121561256657612565612298565b5b600061257484828501612321565b91505092915050565b600060808201905061259260008301876123ac565b61259f60208301866123ac565b6125ac60408301856123ac565b6125b96060830184612382565b95945050505050565b6000602082840312156125d8576125d7612298565b5b60006125e6848285016122eb565b91505092915050565b6125f8816122c2565b82525050565b600060e0820190508181036000830152612618818a61223d565b905061262760208301896123ac565b61263460408301886123ac565b61264160608301876123ac565b8181036080830152612653818661223d565b905061266260a08301856125ef565b61266f60c08301846123ac565b98975050505050505050565b600080fd5b600080fd5b600080fd5b60008083601f8401126126a05761269f61267b565b5b8235905067ffffffffffffffff8111156126bd576126bc612680565b5b6020830191508360018202830111156126d9576126d8612685565b5b9250929050565b600080600080600080608087890312156126fd576126fc612298565b5b600087013567ffffffffffffffff81111561271b5761271a61229d565b5b61272789828a0161268a565b9650965050602061273a89828a01612321565b945050604061274b89828a01612321565b935050606087013567ffffffffffffffff81111561276c5761276b61229d565b5b61277889828a0161268a565b92509250509295509295509295565b600060208201905061279c60008301846125ef565b92915050565b600080604083850312156127b9576127b8612298565b5b60006127c7858286016122eb565b92505060206127d8858286016122eb565b9150509250929050565b7f4e487b7100000000000000000000000000000000000000000000000000000000600052602260045260246000fd5b6000600282049050600182168061282957607f821691505b60208210810361283c5761283b6127e2565b5b50919050565b7f4e487b7100000000000000000000000000000000000000000000000000000000600052601160045260246000fd5b600061287c82612300565b915061288783612300565b925082820390508181111561289f5761289e612842565b5b92915050565b60006040820190506128ba60008301856123ac565b6128c760208301846123ac565b9392505050565b60006128d982612300565b91506128e483612300565b92508282019050808211156128fc576128fb612842565b5b92915050565b600061290d82612300565b915061291883612300565b925082820261292681612300565b9150828204841483151761293d5761293c612842565b5b5092915050565b7f4e487b7100000000000000000000000000000000000000000000000000000000600052601260045260246000fd5b600061297e82612300565b915061298983612300565b92508261299957612998612944565b5b828204905092915050565b600082905092915050565b7f4e487b7100000000000000000000000000000000000000000000000000000000600052604160045260246000fd5b60008190508160005260206000209050919050565b60006020601f8301049050919050565b600082821b905092915050565b600060088302612a407fffffffffffffffffffffffffffffffffffffffffffffffffffffffffffffffff82612a03565b612a4a8683612a03565b95508019841693508086168417925050509392505050565b6000612a7d612a78612a7384612300565b61249f565b612300565b9050919050565b6000819050919050565b612a9783612a62565b612aab612aa382612a84565b848454612a10565b825550505050565b600090565b612ac0612ab3565b612acb818484612a8e565b505050565b5b81811015612aef57612ae4600082612ab8565b600181019050612ad1565b5050565b601f821115612b3457612b05816129de565b612b0e846129f3565b81016020851015612b1d578190505b612b31612b29856129f3565b830182612ad0565b50505b505050565b600082821c905092915050565b6000612b5760001984600802612b39565b1980831691505092915050565b6000612b708383612b46565b9150826002028217905092915050565b612b8a83836129a4565b67ffffffffffffffff811115612ba357612ba26129af565b5b612bad8254612811565b612bb8828285612af3565b6000601f831160018114612be75760008415612bd5578287013590505b612bdf8582612b64565b865550612c47565b601f198416612bf5866129de565b60005b82811015612c1d57848901358255600182019150602085019450602081019050612bf8565b86831015612c3a5784890135612c36601f891682612b46565b8355505b6001600288020188555050505b50505050505050565b82818337600083830152505050565b6000612c6b83856121f1565b9350612c78838584612c50565b612c818361222c565b840190509392505050565b60006040820190508181036000830152612ca7818587612c5f565b9050612cb660208301846123ac565b949350505050565b7f4d6178206f776e657273686970203e2031303025000000000000000000000000600082015250565b6000612cf46014836121f1565b9150612cff82612cbe565b602082019050919050565b60006020820190508181036000830152612d2381612ce7565b9050919050565b600081519050612d398161230a565b92915050565b600060208284031215612d5557612d54612298565b5b6000612d6384828501612d2a565b91505092915050565b7f416d6f756e7420657863656564732062616c616e636500000000000000000000600082015250565b6000612da26016836121f1565b9150612dad82612d6c565b602082019050919050565b60006020820190508181036000830152612dd181612d95565b9050919050565b7f45524332303a2064656372656173656420616c6c6f77616e63652062656c6f7760008201527f207a65726f000000000000000000000000000000000000000000000000000000602082015250565b6000612e346025836121f1565b9150612e3f82612dd8565b604082019050919050565b60006020820190508181036000830152612e6381612e27565b9050919050565b7f4f776e61626c653a206e6577206f776e657220697320746865207a65726f206160008201527f6464726573730000000000000000000000000000000000000000000000000000602082015250565b6000612ec66026836121f1565b9150612ed182612e6a565b604082019050919050565b60006020820190508181036000830152612ef581612eb9565b9050919050565b7f45524332303a20617070726f76652066726f6d20746865207a65726f2061646460008201527f7265737300000000000000000000000000000000000000000000000000000000602082015250565b6000612f586024836121f1565b9150612f6382612efc565b604082019050919050565b60006020820190508181036000830152612f8781612f4b565b9050919050565b7f45524332303a20617070726f766520746f20746865207a65726f20616464726560008201527f7373000000000000000000000000000000000000000000000000000000000000602082015250565b6000612fea6022836121f1565b9150612ff582612f8e565b604082019050919050565b6000602082019050818103600083015261301981612fdd565b9050919050565b7f5265656e7472616e637947756172643a207265656e7472616e742063616c6c00600082015250565b6000613056601f836121f1565b915061306182613020565b602082019050919050565b6000602082019050818103600083015261308581613049565b9050919050565b7f4e487b7100000000000000000000000000000000000000000000000000000000600052603260045260246000fd5b60006130c682612300565b91507fffffffffffffffffffffffffffffffffffffffffffffffffffffffffffffffff82036130f8576130f7612842565b5b600182019050919050565b600060408201905061311860008301856125ef565b61312560208301846123ac565b9392505050565b7f45524332303a20696e73756666696369656e7420616c6c6f77616e6365000000600082015250565b6000613162601d836121f1565b915061316d8261312c565b602082019050919050565b6000602082019050818103600083015261319181613155565b9050919050565b7f45524332303a207472616e736665722066726f6d20746865207a65726f20616460008201527f6472657373000000000000000000000000000000000000000000000000000000602082015250565b60006131f46025836121f1565b91506131ff82613198565b604082019050919050565b60006020820190508181036000830152613223816131e7565b9050919050565b7f45524332303a207472616e7366657220746f20746865207a65726f206164647260008201527f6573730000000000000000000000000000000000000000000000000000000000602082015250565b60006132866023836121f1565b91506132918261322a565b604082019050919050565b600060208201905081810360008301526132b581613279565b9050919050565b7f45524332303a207472616e7366657220616d6f756e742065786365656473206260008201527f616c616e63650000000000000000000000000000000000000000000000000000602082015250565b60006133186026836121f1565b9150613323826132bc565b604082019050919050565b600060208201905081810360008301526133478161330b565b9050919050565b7f4f776e61626c653a2063616c6c6572206973206e6f7420746865206f776e6572600082015250565b60006133846020836121f1565b915061338f8261334e565b602082019050919050565b600060208201905081810360008301526133b381613377565b9050919050565b60006060820190506133cf60008301866125ef565b6133dc60208301856125ef565b6133e960408301846123ac565b949350505050565b6133fa81612376565b811461340557600080fd5b50565b600081519050613417816133f1565b92915050565b60006020828403121561343357613432612298565b5b600061344184828501613408565b91505092915050565b7f5361666545524332303a204552433230206f7065726174696f6e20646964206e60008201527f6f74207375636365656400000000000000000000000000000000000000000000602082015250565b60006134a6602a836121f1565b91506134b18261344a565b604082019050919050565b600060208201905081810360008301526134d581613499565b9050919050565b60006060820190506134f160008301866125ef565b6134fe60208301856123ac565b61350b60408301846123ac565b949350505050565b7f5061757361626c653a206e6f7420706175736564000000000000000000000000600082015250565b60006135496014836121f1565b915061355482613513565b602082019050919050565b600060208201905081810360008301526135788161353c565b9050919050565b7f5061757361626c653a2070617573656400000000000000000000000000000000600082015250565b60006135b56010836121f1565b91506135c08261357f565b602082019050919050565b600060208201905081810360008301526135e4816135a8565b9050919050565b7f416464726573733a20696e73756666696369656e742062616c616e636520666f60008201527f722063616c6c0000000000000000000000000000000000000000000000000000602082015250565b60006136476026836121f1565b9150613652826135eb565b604082019050919050565b600060208201905081810360008301526136768161363a565b9050919050565b600081519050919050565b600081905092915050565b600061369e8261367d565b6136a88185613688565b93506136b8818560208601612202565b80840191505092915050565b60006136d08284613693565b915081905092915050565b7f416464726573733a2063616c6c20746f206e6f6e2d636f6e7472616374000000600082015250565b6000613711601d836121f1565b915061371c826136db565b602082019050919050565b6000602082019050818103600083015261374081613704565b905091905056fea264697066735822122015c49897049546e300bac01cb97007c7c390f62f7c9babd3fd1615ece69dc98964736f6c63430008130033","linkReferences":{}},"methodIdentifiers":{"allowance(address,address)":"dd62ed3e","approve(address,uint256)":"095ea7b3","balanceOf(address)":"70a08231","claimRentalIncome()":"20153851","claimableEarnings(address)":"ebf4094c","decimals()":"313ce567","decreaseAllowance(address,uint256)":"a457c2d7","depositRentalIncome(uint256)":"55936937","distributions(uint256)":"4487d3df","emergencyWithdraw(address,uint256)":"95ccea67","getOwnershipPercentage(address)":"a2931fe8","getPropertyInfo()":"5de5f3be","increaseAllowance(address,uint256)":"39509351","lastClaimedIndex(address)":"d9c3813f","maxOwnershipBps()":"d9e56e2d","name()":"06fdde03","owner()":"8da5cb5b","pause()":"8456cb59","paused()":"5c975abb","paymentToken()":"3013ce29","property()":"176fd3f0","renounceOwnership()":"715018a6","setMaxOwnershipBps(uint256)":"8a243460","symbol()":"95d89b41","totalSupply()":"18160ddd","transfer(address,uint256)":"a9059cbb","transferFrom(address,address,uint256)":"23b872dd","transferOwnership(address)":"f2fde38b","unclaimedEarnings(address)":"47315ec4","unpause()":"3f4ba83a","updatePropertyMetadata(string,uint256,uint256,string)":"83cfbb09"},"id":0}